:100000000C9442020C947A020C947A020C947A02B8
:100010000C947A020C947A020C947A020C947A0270
:100020000C947A020C947A020C943E1F0C941220C9
:100030000C94541A0C947A020C947A020C947A025E
:100040000C947A020C947A020C947A020C947A0240
:100050000C947A020C94DB1A0C947A020C947A02B7
:100060000C947A020C947A020C947A020C947A0220
:100070000C947A020C947A020C947A020C947A0210
:100080000C947A020C947A020C947A020C947A0200
:100090000C947A020C947A020C947A020C947A02F0
:1000A0000C947A020C947A020C947A0235001E00A9
:1000B0001F0020002100220023002400250026002C
:1000C00027002D002E0000002A002B0014001A002B
:1000D0000800150017001C0018000C001200130087
:1000E0002F00300031000000290004001600070036
:1000F00009000A000B000D000E000F003300340051
:10010000280000000000E1001D001B00060019008F
:10011000050011001000360037003800E50000002F
:1001200000000000E0000000E20000002C280000B9
:1001300000002C420000E60000000000000000006B
:1001400000000100010001000100010001000100A8
:100150000100010001000100010001000100010097
:100160000100010001000100010001000100010087
:100170000100010001000100010001000100010077
:100180000100010001000100010001000100010067
:100190000100010001000100000001000100010058
:1001A0000100010001000100010001000100010047
:1001B0000100010000000100010001000000E30057
:1001C00000002C00E200000001000000010000001F
:1001D0000000010001000100707C717C727C000055
:1001E000000000000000000000000000000000000F
:1001F000000000000000000061520000000000004C
:1002000000000000000000000000000000000000EE
:1002100000000000000000000000000000000000DE
:100220005000510052004F0000000000000000008C
:1002300000000100000000000000000000000000BD
:100240000000000000000000000000000000007C32
:10025000010000000100000001000000000000009B
:10026000000001000000000000000000000000008D
:100270000000000000002A2B280000000000000001
:1002800000000000000000000029000000002C1EFB
:100290003420212224342627252E362D3738271EB8
:1002A0001F202122232425263333362E37381F04DE
:1002B00005060708090A0B0C0D0E0F101112131476
:1002C00015161718191A1B1C1D2F3130232D350434
:1002D00005060708090A0B0C0D0E0F101112131456
:1002E00015161718191A1B1C1D2F3130354C00001C
:1002F00000000000000000000000000000000000FE
:1003000000000000000000000000000000000000ED
:1003100000007E0F00D4FFFFFFC7000000780C0331
:100320004100720069007300750000000A03460076
:1003300061007400650000000403090409023B0029
:10034000020100A0FA0904000001030101000921D3
:10035000110100012244000705810308000109047E
:100360000100010300000009211101000122B60073
:100370000705820320000112010002000000087E30
:10038000FA000001000102000105010902A1018536
:10039000020901A100050919012908150025019587
:1003A00008750181020501093009311581257F9504
:1003B000027508810609381581257F950175088128
:1003C00006050C0A38021581257F950175088106FE
:1003D000C0C005010980A101850319012AB70015D4
:1003E0000126B700950175108100C0050C0901A117
:1003F00001850419012AA002150126A002950175A4
:10040000108100C005010906A1018506050719E054
:1004100029E71500250195087501810205071900D6
:1004200029EF1500250195F07501810205081901D4
:100430002905950575019102950175039101C00586
:10044000010906A101050719E029E7150025019515
:1004500008750181029501750881010507190029B8
:10046000FF150026FF009506750881000508190193
:100470002905150025019505750191029501750362
:100480009101C00011241FBECFEFDAE0DEBFCDBF67
:1004900004B603FE18C08091D5029091D602A091B7
:1004A000D702B091D8028730904BA740B04B59F497
:1004B0001092D5021092D6021092D7021092D80252
:1004C000E0E0F8E3099511E0A0E0B1E0E2EDF5E449
:1004D00002C005900D92A23AB107D9F722E0A2EA34
:1004E000B1E001C01D92A53DB207E1F70E949E1246
:1004F0000C94A8220C9400008330B8F46530A8F462
:100500004F3098F450E09FE0699F400D511D112439
:10051000FA019BE4899FE00DF11D1124EE0FFF1FEE
:10052000E455FF4F85919491089581E090E00895FE
:100530000E947C02089581E008950E949B02089524
:1005400081E008950E949B0208950E94A2020895EE
:1005500008950E94A8020895A6E0B0E0E2EBF2E060
:100560000C94042249835A839E833091B00189817F
:100570009A8131111AC03E81332399F0222389F0E8
:100580000E942C09182F682F89819A810E940809DE
:1005900069817A81812F0E944D102696E3E00C94A8
:1005A00020220E941A09182FF3CF0E942C0969817A
:1005B0007A81F1CFFC01262F4081518162817381C4
:1005C000848195810E94AC020895CF93DF93EC0162
:1005D00061E00E94DA02BE010E949D02DF91CF918C
:1005E0000895CF93DF93EC0160E00E94DA02BE0130
:1005F0000E94A902DF91CF91089581E008950E94A1
:10060000FD020895CF93C82F0E94DD078C2F0E9412
:10061000FF022FEF84E39CE0215080409040E1F7FF
:1006200000C00000CF91089581E00E9402030E9463
:10063000FF1A089580E00E9402030E94231B089580
:100640000F931F93CF93DF938C0161E00E94DA0236
:10065000EC01B8010E94A502811106C080E0DF9183
:10066000CF911F910F910895B801CE010E94D91228
:100670008823A1F3B801CE010E942418882371F3C6
:10068000B801CE010E943613882341F3B801CE0190
:100690000E940C13882311F3F8018581882361F0EF
:1006A000C330FCE7DF07E9F058F4C115ECE7DE07DB
:1006B000A9F0C130DC47B9F0C8010E94A002CFCF39
:1006C000CB358CE7D807A9F0CC35ECE7DE0771F025
:1006D000CA35DC4789F70E94840DEECF0E941403CF
:1006E000BDCF0E948C0D0E941A03B8CF0E947A0DD4
:1006F000E3CF0E94880DE0CF0E94301A0E941C04B4
:1007000008950E9420040E94351A08952F923F9266
:100710004F925F926F927F928F929F92AF92BF9211
:10072000CF92DF92EF92FF920F93CF93DF931C0152
:1007300029013A016B0181E0C81AD108E101CC0D11
:10074000DD1D1882F12CE12C8AE0882E912CA12C41
:10075000B12CEC14FD0498F0C101DF91CF910F9101
:10076000FF90EF90DF90CF90BF90AF909F908F90D1
:100770007F906F905F904F903F902F900895C301AE
:10078000B201A50194010E94CD21605D603319F48E
:10079000E114F10431F0411451046104710409F4CD
:1007A000602F6A93C301B201A50194010E94CD217B
:1007B00029013A018FEFE81AF80ACBCF0F93209165
:1007C0000001309101012817390721F42091AA0175
:1007D000261791F090930101809300016093AA0184
:1007E0009C0150E040E0062F66E070E084EA91E072
:1007F0000E9486030F91089584EA91E0FBCF08954B
:1008000081E008950895CF93DF93D82F0E940004CC
:10081000C82F882319F08D2F0E9402048C2FDF919E
:10082000CF9108950895CF93C82F0E94FF038C2F76
:100830000E940304CF91089580E00E94130408955C
:100840000E946D180E9413040895CF930E946D18A2
:10085000C82F8091AB018C1779F0C093AB010E9437
:10086000C01A6093AC017093AD018093AE01909378
:10087000AF018C2F0E941304CF910895ADE0B0E03A
:10088000E4E4F4E00C940522488759876A877B8763
:100890008C879D8791110E948A0C1F8286E0FE0141
:1008A0003896DE01119601900D928A95E1F78D81BF
:1008B00081110DC029813A814B815C816D817E81DE
:1008C0008F810E94D40B2D96E2E00C942122CE0160
:1008D00001960E94E5028111EDCFF5CFFC01248144
:1008E000213021F4808191810E945E090895662360
:1008F00029F00E9497140E947C1508950E94031508
:10090000FACFCF93C82F8823C9F08238C9F40E9448
:100910007A1881FD13C089E30E9499190E941E0D67
:100920002FEF87EE93E0215080409040E1F700C028
:10093000000089E30E94B0190E941E0DCF91089516
:100940008338A1F40E947A1880FDF8CF83E50E94D5
:1009500099190E941E0D2FEF81EE94E021508040E6
:100960009040E1F700C0000083E5E4CF8438A1F4B3
:100970000E947A1882FDE2CF87E40E9499190E94B2
:100980001E0D2FEF81EE94E0215080409040E1F762
:1009900000C0000087E4CECF8CEF8C0F813A70F45A
:1009A0008C2F0E941019882329F08C2F0E94B019D7
:1009B0000E941E0D8C2F0E949919BECF80E28C0FD1
:1009C000883048F4C77081E001C0880FCA95EAF703
:1009D0000E946D0CB1CFEBE5EC0FE33040F4F0E09A
:1009E000EF5AFE4F808190E00E94A418A7CFE8E55F
:1009F000EC0FEB3150F4F0E0EE0FFF1FE55EFE4F21
:100A0000808191810E94C91899CF83E38C0F833133
:100A100008F094CF61E08C2F0E9477048FCF882359
:100A200009F456C0823879F40E947A1881FF50C0C8
:100A300089E30E9499190E941E0D89E30E94B01952
:100A40000E941E0D0895833859F40E947A1880FF81
:100A50003FC083E50E9499190E941E0D83E5EECFE9
:100A6000843859F40E947A1882FF32C087E40E94C9
:100A700099190E941E0D87E4E1CF9CEF980F913ADF
:100A8000E8F290E2980F983050F4877091E001C03E
:100A9000990F8A95EAF7892F0E94730CD1CF9BE5B5
:100AA000980F933028F490E080E00E94A4180895F5
:100AB00098E5980F9B3128F490E080E00E94C918D7
:100AC000089593E3980F933118F460E00E9477043F
:100AD00008951F93CF93DF93182FEB010E94810499
:100AE000209739F4812F0E940F05DF91CF911F913C
:100AF00008958FE99FE00197F1F700C0000021976A
:100B0000EFCF70E060E0893311F460E570E00E949F
:100B100069050895882321F00E946D0C0E941E0D26
:100B20000895882321F00E94730C0E941E0D0895E1
:100B3000B0E0A0E0EEE9F5E00C94FE216C01D62FC8
:100B4000C72FFC011581068102950F700E94630C6E
:100B5000E82E8823F9F0E12E1123E1F08C2F807F1D
:100B6000803461F080E28D0F883008F18C2F807E18
:100B7000803221F4D230D8F00023C9F08091AF0246
:100B800082FF15C082E00E944E0D0E94630C91E02E
:100B9000E82EE926BC2EB2949FE0B922FBE0FB15BB
:100BA000B8F1EB2DF0E0E655FD4D0C94EF21E12C72
:100BB000F1CF0C2F0F70C07F11F00295007F112331
:100BC00099F0002359F080E28D0F883010F0D11198
:100BD00007C0802F0E946D0C0E941E0D8D2F5AC0E1
:100BE000802F0E947D0CF8CF8D2F0E940F050023CF
:100BF00079F080E28D0F883010F0D11104C0802F81
:100C00000E94730C03C0802F0E94830C0E941E0D53
:100C1000EB2DE850FF0B349720F40E946D180E94D2
:100C20001304EE2089F00E945F0C80FD0DC0F601D8
:100C300015820E94590C0E946608C6010E94A407F2
:100C40000E94590C0E947608CDB7DEB7E9E00C94FB
:100C50001A222C2F2F70F22EC07FC03219F0F2947E
:100C600080EFF822DD2341F0D130D1F1112309F4D6
:100C700044C00023F1F0B2CF8091AF0282FD15C0D5
:100C8000112359F0FF2029F08F2D0E946D0C0E9436
:100C90001E0D80E00E948104BBCF80E00E940F0502
:100CA000FF2009F4B5CF8F2DABCF112369F00111CF
:100CB00004C08F2D0E948A05ABCF013009F0A8CF68
:100CC0008F2D0E94A10CA4CF0111A2CF8F2D0E94C5
:100CD00091058F2D0E94AD0C8F2D0E94910C98CF05
:100CE000112321F0063008F093CFE3CF053008F050
:100CF0008FCF8F2D0E9491058BCF0023D1F3D93355
:100D000049F43FEF87EE93E0315080409040E1F7A7
:100D100000C000008D2F0E940F057ACF8C2F869582
:100D20008695837069F0813009F072CF8D2F9C2FEA
:100D30009370111102C080E090E00E94C91868CF42
:100D40008D2F9C2F9370111102C080E090E00E94C3
:100D5000A4185ECF612F8D2F0E94770459CF8C2F5E
:100D60008370A1F5111154CF4D2F429546954770D0
:100D7000440F440F2D2F2F7030E0042E02C0220F9D
:100D8000331F0A94E2F790E080E0D4FF09C08FE0BF
:100D900090E002C0880F991F4A95E2F780959095E0
:100DA000C695C695C370822B932BC23049F058F478
:100DB000C13019F00E9436082BCF0E942D0828CF91
:100DC0000E943F0825CF0E942A0822CF8695112332
:100DD00011F08C2F8170882309F41ACF4D2F429582
:100DE00046954770440F440F2D2F2F7030E0042E8E
:100DF00002C0220F331F0A94E2F790E080E0D4FF94
:100E000009C08FE090E002C0880F991F4A95E2F771
:100E100080959095C695C695C370822B932BC23052
:100E200049F058F4C13019F00E94A108F1CE0E9497
:100E30009808EECE0E94AA08EBCE0E944E08E8CE9B
:100E4000CF70112329F08C2F0E9466088D2F32CF8E
:100E50008D2F0E9491058C2F0E947608D9CED23F0B
:100E600041F160F4D03FB9F0D13F81F0112309F492
:100E700043C00111B3CE8C2F8F711FC0D33F01F13E
:100E8000D43FA1F78091AF0282FD24C08C2F8F71D7
:100E9000112311F312C0112341F0053008F0B8CE30
:100EA0008C2F8F710E948808B3CE063008F0B0CE28
:100EB000F7CF8C2F8F711111CFCF0E946608A8CE6B
:100EC000112329F08C2F8F710E945A08A1CE0E9405
:100ED00055089ECE112331F063E08C2F8F710E9454
:100EE000300D96CE81E00E944E0D023008F490CE77
:100EF00082E00E944E0D8CCE002359F0D93309F0C8
:100F000009CFEFEFF7EE23E0E150F0402040E1F7AA
:100F1000FFCE8C2F8F71A0CF0F931F93CF93DF93B2
:100F2000EC01688179818D810E9469098C010E94A0
:100F3000B3080E942908B801CE010E949805DF91EC
:100F4000CF911F910F910895CF93DF93EC018C8186
:100F5000882399F0CE010E942003811111C00E94C4
:100F6000630C882351F08D81882339F08091AF0282
:100F700082FF03C082E00E944E0DDF91CF91089561
:100F8000CE010E948C07CE010E94F102F6CF90E0C4
:100F900080E00E94A41890E080E00E94C9180E949E
:100FA0008A0C0E941E0D0E9498150E947C150895BF
:100FB0000E94C7190E94C70708950E947A0C0E94D8
:100FC000D807089592959F70963091F058F4925FEB
:100FD0009F70923058F4803F19F030F4883E30F41E
:100FE00081E008959A5FF4CF843FD1F380E00895C3
:100FF000883EB0F3813FD1F7F3CFFC012481222357
:1010000039F0808191810E945E090E94E207089573
:1010100080E00895A6E0B0E0E0E1F8E00C9405225D
:101020002696E2E00C942122A7E0B0E0EAE1F8E0A5
:101030000C9405222796E2E00C94212208950E9448
:101040001E0808950E941F089093DC018093DB0125
:10105000089508950E94220808952091DB0130919F
:10106000DC01822B932B0E94220808952091DB0142
:101070003091DC01822393230E942208089520915D
:10108000DB013091DC01822793270E94220808951A
:101090000E941E0808950E94480808950E944B0867
:1010A0009093DA018093D901089590E080E00E9446
:1010B0004E08089521E030E0A90102C0440F551FF9
:1010C0008A95E2F7CA010E944E08089521E030E0B7
:1010D00002C0220F331F8A95E2F78091D9019091C7
:1010E000DA01822B932B0E944E08089521E030E014
:1010F00002C0220F331F8A95E2F720953095809128
:10110000D9019091DA01822393230E944E08089519
:1011100021E030E002C0220F331F8A95E2F7809170
:10112000D9019091DA01822793270E944E080895F1
:101130002091D9013091DA01822B932B0E944E0825
:1011400008952091D9013091DA01822393230E94DE
:101150004E0808952091D9013091DA018227932712
:101160000E944E0808950895262F277091E001C02F
:10117000990F2A95EAF723E0769567952A95E1F786
:10118000660F771F660F771FFA01E60FF71F50E013
:1011900040E0682F70E08191DF0111979B01042EE0
:1011A00002C0369527950A94E2F7217021952827E9
:1011B000292328272C934F5F5F4F4430510559F75F
:1011C0000895A82FA77023E0969587952A95E1F7B3
:1011D000880F991F880F991FFB01E80FF91F50E036
:1011E00040E080E0219130E00A2E02C0369527953C
:1011F0000A94E2F721703327042E01C0220F0A94CB
:10120000EAF7822B4F5F5F4F4430510559F708953D
:10121000262F953070F48F3060F4682F70E08FE0E7
:10122000989F600D711D112441EB51E0822F0E94A7
:10123000B4080895292F953068F48F3058F490E061
:1012400061EB71E03FE0239F800D911D11240E940E
:10125000E108089580E00895B0E0A0E0E2E3F9E05D
:101260000C94FE217C010091D9011091DA0180914A
:10127000DB019091DC01082B192BCFE0D0E0CC24CE
:10128000C394D12CBC2EC6010C2E02C0880F991F0E
:101290000A94E2F780239123892B49F4219790F750
:1012A000B12C8B2DCDB7DEB7E9E00C941A22B70133
:1012B0008C2F0E945910019789F3F3CFCF93DF93BE
:1012C000EC010E942C09BE010E945910DF91CF91C0
:1012D00008951F93CF93DF93EB019091B001992371
:1012E00039F0CB010E945E09DF91CF911F910895E3
:1012F000882369F0CB010E942C09182F682FCE019A
:101300000E940809BE01812F0E945910EDCFCB0128
:101310000E941A09182FF6CF1F93CF93DF93C09125
:10132000DD0117E08091DE018C1304C0DF91CF91C5
:101330001F910895D0E01C9FF0011D9FF00D112416
:10134000E152FE4F20813181428153816481758158
:1013500086810E9414082196C770E4CF209117025D
:10136000309118024091190250911A0260911B02AB
:1013700070911C0280911D020E94140808950F9321
:101380001F93CF93DF9380911D02807F09F051C09E
:1013900080911C02882309F44CC0E091DD01D091BA
:1013A000DE0110911802009117024091190250912C
:1013B0001A026091020170910301C7E0DE17C9F1C2
:1013C0008E2F90E0EC9FF0011124E152FE4F24811A
:1013D0002223A1F1C89FF001C99FF00D1124DF0164
:1013E000A152BE4F11962C911197211327C02C9119
:1013F000201324C015962C91159721111FC0129609
:101400002D913C91241B350B26173707B8F480919A
:101410001D028F70806180931D02EB51FE4F808111
:101420008F708061808387E192E00E94A4070E9410
:101430008C09DF91CF911F910F910895FC01319696
:10144000E770BCCF482F2091DD019091DE0157E07D
:10145000291302C080E0089530E0529FF001539FAD
:10146000F00D1124E152FE4F8181681306C0808186
:10147000481303C085818111EECF2F5F3F4F277046
:10148000E7CFA4E1B0E0E7E4FAE00C94FB218C01A3
:1014900086E0F801DE011F9601900D928A95E1F732
:1014A000F8018481E58097E1A92E92E0B92E909110
:1014B0001B0291111FC08823D1F0EE20A9F0C801B2
:1014C0000E94FD07F82E882379F087E0F801D50106
:1014D00001900D928A95E1F7C5010E946E040E9469
:1014E000BF090E94AE0964C0C8010E94A407FF247E
:1014F000F3945EC0C080D18082809380F0901C0203
:101500002091190230911A02A401421B530B9A0137
:101510004091020150910301FF2009F4F9C0241702
:10152000350708F0A7C0882309F442C0909118023B
:1015300080911D02282F207F09F05CC09D1116C0EC
:1015400090911702C91212C0E1104EC08F708061D5
:1015500080931D020E94AE0987E192E00E94A407D9
:1015600080911D02F8018683F12C22C0E1103CC05D
:101570006D2D8C2D0E94220A6D2D8C2D0E94220A29
:10158000E82E8111F1CFCF86D88A8F8598890E9465
:101590005E09292F22952F70243078F49F70223015
:1015A000A8F09923B9F0F8019681907F99F4FE2C68
:1015B0008F2D6496ECE00C9417222A5F2F70223056
:1015C00068F0C8010E94A407EF2CF1CF992311F015
:1015D000882369F3805E883050F3F3CF803F38F37F
:1015E000815F833070F7E3CF80911D02816080932B
:1015F0001D02BACF9D1113C090911702C9120FC0DE
:10160000E1100DC08683C8010E94A40787E0F8019D
:10161000A7E1B2E001900D928A95E1F762CFC8018F
:101620000E94FD07882309F45FCFEE2009F45CCF08
:1016300080911D02803288F02091170230911802AB
:10164000398728879B868A8690911B029C871D86F6
:101650008E87CE0108960E94A40787E0F801A7E1D3
:10166000B2E001900D928A95E1F70E94BF090E94B5
:10167000AE093DCF90911D02292F207FA1F4682D46
:101680009A8A898AA6017A899E2D0E940A0887E192
:1016900092E00E94A40787E0F50111928A95E9F78C
:1016A0000E94AE0961CF882309F482CF809118028D
:1016B0008D1110C080911702C8120CC0E1100AC031
:1016C0009683C8010E94A40787E0F50111928A95CC
:1016D000E9F76ECFC8010E94FD07882309F404CF03
:1016E000EE2009F401CF80911D02803208F4B5CFBD
:1016F00020911702309118023A8329839C828B82B1
:1017000090911B029D831E828F83CE010196A3CFF1
:1017100024173507D8F5882309F4E9CEFE2CEE20EE
:1017200009F4E2CE809118028D1122C08091170237
:10173000C8121EC02D37310590F490911D0290FD06
:101740000EC0907F61F080911D028683903F09F466
:101750005ACF982F907F905F8F70892B53CF87E05F
:10176000F801A7E1B2E001900D928A95E1F720CF50
:10177000C8010E94FD07811170CF80911D02816018
:1017800080931D02C8010E94A40712CF682D9A8A77
:10179000898AA6017A899E2D0E940A0887E0F501B0
:1017A00011928A95E9F79DCEAEE0B0E0EAEDFBE05C
:1017B0000C940422288739874A875B876C877D874A
:1017C0008E87CE0108960E94410A8823B1F06C856D
:1017D000662341F0288539854A855B857D858E8520
:1017E0000E94140817E08091DD019091DE018913B9
:1017F0003DC02E96E3E00C94202287E0FE0138964F
:10180000DE01119601900D928A95E1F78C8588236F
:1018100049F32091DE0130E0C901019687709927D4
:101820004091DD014817190699F097E0929FD00189
:10183000939FB00D1124A152BE4FFE01319601902D
:101840000D929A95E1F78093DE010E948C09CACF30
:101850000E94DD071092DE011092DD0187E0E7E1D2
:10186000F2E0DF011D928A95E9F7BCCF819FC001AC
:10187000112481529E4F0E94410A882309F4B9CF56
:10188000E091DD011E9FF0011124E152FE4F208105
:101890003181428153816481758186810E9414085F
:1018A0008091DD0190E00196877099278093DD019A
:1018B0009ACF809146028695869586950895809167
:1018C00046028770089590914602977081E009F46E
:1018D00080E0089580917202089590917202892BA0
:1018E000809372020895809590917202982390934C
:1018F0007202089510927202089590917102892BDC
:10190000809371020895809590917102982390932D
:101910007102089510927102089508950E948D0C2D
:10192000089590914702292F282331F0809589232B
:10193000809347020E948E0C089508950E949D0C8A
:10194000089590914802292F2823281729F0982BD1
:10195000909348020E949E0C089590914802292F6E
:10196000282331F080958923809348020E949E0CA1
:10197000089580914802882329F01092480280E05F
:101980000E949E0C0895CF93C091720280917102C3
:10199000C82B80914802882331F0C82B0E94EE1892
:1019A00081110E94B90C8C2FCF910895CF93DF93B2
:1019B000C0910601D09107010E94C30C8883C09199
:1019C0000601D091070148E050E06EE372E0CE01DD
:1019D0000E944022892B59F088E0FE01AEE3B2E07C
:1019E00001900D928A95E1F7CE010E947D18DF915A
:1019F000CF910895CF93DF93C0910401D091050159
:101A00000E94C30C8983C0910401D091050140E27A
:101A100050E06EE172E0CE010E944022892B59F025
:101A200080E2FE01AEE1B2E001900D928A95E1F70D
:101A3000CE010E948818DF91CF91089580911A01FC
:101A4000882339F08091AE0287FF03C00E94FA0C10
:101A500008950E94D60C089508950E942C0D0895B3
:101A60009091AF0292FF11C098E0899F90011124DC
:101A7000622B609346020E9466088091460286951A
:101A8000869586950E942D0D08950E9466080895FA
:101A90001092460280E00E942D0D0895909146021A
:101AA0008095892380934602282F277069F489172F
:101AB00059F09091AF0292FF07C086958695869562
:101AC0000E9476080E94480D08959091AF0292FB03
:101AD000222720F9281769F080FB92F99093AF0232
:101AE0008091AE029091AF020E94AD0D82E00E9403
:101AF0004E0D08958091AF0282FB882780F991E016
:101B000089270E94650D089581E00E94650D089562
:101B100080E00E94650D08956FEF7FEF90E080E018
:101B20000E949222089590E080E00E945E2221E0CF
:101B3000853E9E4F09F020E0822F089582E090E0DC
:101B40000E945622089583E090E00E945622089554
:101B500084E090E00E945E220895BC0184E090E061
:101B60000E9492220895AB01BC018FE090E00E9498
:101B700086220895AB01BC0183E190E00E94862299
:101B8000089560E070E0CB010E94BA0D089560E016
:101B900070E0CB010E94B30D0E94C10D0895A8E032
:101BA000B0E0E5EDFDE00C94052265EE7EEF90E0FF
:101BB00080E00E94922260E082E090E00E94742225
:101BC00081E090E09093DC018093DB0161E083E0B1
:101BD00090E00E94742260E074E184E090E00E9452
:101BE000922260E086E090E00E94742260E087E04C
:101BF00090E00E94742240E050E0BA0188E090E05A
:101C00000E94862260E083E290E00E94742260E0FD
:101C10008CE090E00E94742260E08DE090E00E94F1
:101C2000742219821A821B821C821D821E821F82CC
:101C3000188648E050E067E170E0CE0101960E940E
:101C4000642240E050E0BA018FE190E00E948622D9
:101C50000E94C70D2896E2E00C9421220E94CF0D2D
:101C60000895682F8EE090E00E9474220895A6E007
:101C7000B0E0EDE3FEE00C9403220E94B41A8C0164
:101C800080917302909174028017910781F01982FC
:101C90001A820E94B41A682F49815A81792F80E0F4
:101CA00090E00E943E041093740200937302269603
:101CB000E4E00C941F220E94C01A60938302709388
:101CC0008402809385029093860260937F027093D2
:101CD000800280938102909382020895089508956E
:101CE0000E946E0E089508950E94730E08958FE469
:101CF00091E10E94B3120E946F0E0E94700E08952F
:101D000081E008950E94800E08950E94800E08953B
:101D1000089508950E94880E0E94890E08950E94D9
:101D2000930D811102C00E942E0E0E949E0D809381
:101D300087020E94A80D9093AF028093AE020E948A
:101D4000D6120E94A30D90E00E942A088091D9012A
:101D50009091DA010E944B0808950E94AB1A0E94EC
:101D60000E120E948F0E0E9412040E94740E08959B
:101D7000A6E0B0E0EEEBFEE00C94F9210E94820EAA
:101D800081110AC00E94370E0E94BA150E942504D4
:101D90002696EEE00C9415220E94241225E7822E4E
:101DA00022E0922E640110E0F601E190F1906F01C3
:101DB000812F0E9459111F5F153009F44BC0E8169E
:101DC000F90691F38091870281FD0E9462110E94C1
:101DD000850E782E10E066246394812F0E9459119D
:101DE0007C01F401A190B1904F018A159B0561F12E
:101DF000A826BF2400E0CC24C394D12CC5018C219B
:101E00009D21892BC1F07720B1F009831A830E94AC
:101E1000B41A9C838B836D8221E0C7018C219D21A4
:101E2000892B09F420E049815A816B817C818D8165
:101E3000922F0E943E040F5FCC0CDD1C0F30F1F698
:101E4000F4013297F182E0821F5F153031F60E9473
:101E50005B0E9ACFE816F90609F0B4CF93CF1F9323
:101E6000CF93DF930E945E10EC01C11580E5D80787
:101E7000F0F5C11580E4D80708F09CC0C03ED1053C
:101E800020F5CD3CD10508F082C0C83AD10578F4E0
:101E9000C53AD10508F073C0C130D10519F12097BA
:101EA00009F1C430D105F0F4D0E0C0E01BC0C33C60
:101EB000D105D0F7C85AD0E0CC0FDD1FCC5ADE4F89
:101EC0000990D881C02DD4640DC0C11580E2D80717
:101ED00008F0D1C0C11581E0D80708F05AC0C83E4B
:101EE000D10510F7CE01DF91CF911F910895C03633
:101EF00082E5D80718F5C03482E5D80708F06BC032
:101F0000C03282E5D80708F05FC0C11582E5D80766
:101F100008F497C02C2F2695269580E2289F9001E3
:101F200011248C2F8370C1E0D0E002C0CC0FDD1FE4
:101F30008A95E2F7C22BD32BDD68D4CFC03A82E575
:101F4000D80760F4C03882E5D80708F459C0CF71CB
:101F5000D0E0DC2FCC27C46FD06AC4CFC03C82E570
:101F6000D80708F462C0C03E82E5D80708F09CCFCD
:101F7000DC2FCC27CC27DF71C06FD06AB3CFC55A16
:101F8000D0E0C657DE4FC881D0E0D064ABCFD0657B
:101F9000A9CF8D2F0E940011182FCE0199270E94E2
:101FA0005E10C12FD0E0DC2FCC27CC27DF71C82BEF
:101FB000D92B98CFCE0199270E945E10CC27DF70D5
:101FC000C82BD92BD06A8ECFCF71D0E0DC2FCC2795
:101FD000C16FD06A87CF2C2F26952695277080E277
:101FE000289F900111248C2F8370C1E0D0E002C0A3
:101FF000CC0FDD1F8A95E2F7C22BD32BDC6872CFA2
:102000002C2F26952695277080E2289F9001112479
:102010008C2F8370C1E0D0E002C0CC0FDD1F8A9509
:10202000E2F7C22BD32BDA685DCF8C2F8F710E9421
:102030000011C82FD0E0DC2FCC27CC27DF71D06275
:1020400051CF8C2F8F710E94001155E0D695C79506
:102050005A95E1F7CF70D0E0DC2FCC27282F30E065
:1020600084FF05C044E0220F331F4A95E1F7C22BDD
:10207000D32BD06937CF8D2F8F710E940011182F6D
:10208000CE0199270E945E10C12FD0E0DC2FCC2713
:10209000CC27DF71C82BD92BD2CF462F753030F427
:1020A0006F3020F4672F0E949802089590E080E03E
:1020B00008950E944D100E942F0F089582389105B7
:1020C000B9F1B0F48133910509F47DC048F4893247
:1020D000910509F46DC08A32910509F47BC0089519
:1020E0008533910509F45FC08933910509F108959D
:1020F000833E9105D9F138F4803E910529F1823E65
:10210000910579F10895863E9105D9F1873E9105B3
:1021100009F43EC0843E910541F52091AF0221FFB4
:1021200024C08091AE0284FD19C087EE90E008952E
:102130002091AE02237009F05AC02091AF0223FF14
:1021400014C089E290E008952091AE0220FD38C0CD
:102150003091AF0230FF09C024FF43C090E080E01F
:1021600008952091AE0222FDF7CF08952091AE028E
:1021700022FD3AC03091AF0230FD39C024FFF5CFC7
:10218000EDCF2091AE0223FFF0CF24FDE7CFCDCFDE
:102190002091AE0223FD2EC03091AF0231FFEECF71
:1021A00084EE90E008952091AE0225FFDECFC9CFE6
:1021B0002091AE0225FD21C02091AF0223FFD5CF93
:1021C00089E390E0D2CF2091AE0226FFCECF8AE203
:1021D00090E008952091AE0226FFC7CF81E390E002
:1021E000089583EE90E0089582EE90E0089580EEE9
:1021F00090E0089586EE90E0089585E390E00895DC
:102200009091AE0292FF10C041E0282F247124303B
:1022100009F040E031E0282F2871283009F030E043
:10222000431711F02CE0822793FF10C041E0282FC4
:102230002471243109F040E031E0282F2871283141
:1022400009F030E0431711F02CE082273091AF0203
:1022500030FF10C051E0282F2171213009F050E0EB
:1022600041E0282F2871283009F040E0541711F080
:1022700029E0822731FF10C041E0282F2171213150
:1022800009F040E031E0282F2871283109F030E0D2
:10229000431711F029E0822794FD877E089580E09E
:1022A000089508950E945111089508950E945511AE
:1022B0000895E82FF0E0EE0FFF1FE654FD4F8081F8
:1022C00091810895089580EA8A95F1F7089500C0F4
:1022D00008950E9463110895F894E82FE295EF7035
:1022E000F0E031A1282F2F7081E090E001C0880F2D
:1022F0002A95EAF7982F9095932391A392A1892B81
:1023000082A378940895CF93DF93CCE9D1E08991AB
:102310008F3F11F00E946C1181E0C13AD807B9F7E4
:10232000CDE8D1E089918F3F11F00E946C1181E0DE
:10233000CC39D807B9F7DF91CF910895AF92BF920A
:10234000DF92EF92FF920F931F93CF93DF938C0155
:10235000D62EC62FD0E0CE0184569E4F7C01FC01C4
:1023600020812F3F09F44DC0F894E22FE295EF70E1
:10237000F0E031A12F7081E090E001C0880F2A9534
:10238000EAF7932F982B91A392A18095892382A39A
:1023900078940E946711EDE8F1E04CE951E021E00A
:1023A00030E0B12CA12C61916F3FA9F1A62FA2952D
:1023B000AF70B0E090968C9190E06F7002C09595F0
:1023C00087956A95E2F780FD26C0C901A82AB92A37
:1023D000220F331F4E175F0731F7F70180818F3FC0
:1023E00011F00E946C1161E0A114B10409F460E0E5
:1023F0008D2D0E946911CC0FDD1FC00FD11FB98236
:10240000A882DF91CF911F910F91FF90EF90DF9005
:10241000BF90AF90089590E080E0D8CF0E948311E4
:102420008AE0EAEBF2E0DF01982F1D929A95E9F736
:10243000E0EBF2E0DF011D928A95E9F785E00E946A
:102440005F120E9452110895AAE0B0E0EAE2F2E1C0
:102450000C9402228E010F5F1F4F8AE0F801119247
:102460008A95E9F7F12C6F2DC8010E949E11F39413
:10247000F5E0FF12F8CF4AE050E0B80180EB92E0BF
:102480000E94402221E0009709F420E0892B41F0CE
:102490008AE0F801A0EBB2E001900D928A95E1F795
:1024A00045E06AEB72E080EB92E00E946012182F28
:1024B0000E945611812F2A96E5E00C941E22089561
:1024C000B0E0A0E0E6E6F2E10C94FF216C017B01B4
:1024D000042FC22F222379F081E080938A020E9488
:1024E000B41A909389028093880280E0CDB7DEB75A
:1024F000E8E00C941B22D0918A02DD23B1F3809195
:102500008802909189020E94CC1A059770F310E01E
:10251000000F111FA801B601C7010E944022892B9C
:1025200031F0A801B601C7010E944D22CD2F1092B3
:102530008A028C2FDBCF0E94B80E08950E944D1A9C
:102540000E94751C0E94770E0E948F1C0E94AD0E87
:102550000E949C1C0E94A11C0E949B120E94BB1CFA
:102560000E948A0EF7CF9093A3018093A201089551
:102570000E948C0D089580E00E9459118170089589
:102580000E9424122FEF86E791E021508040904076
:10259000E1F700C000000E9424120E94BB128823B1
:1025A00021F00E94B8120E94FF1A08950E94C012E2
:1025B00008959C01FB018581882361F12137FCE7A7
:1025C0003F07C1F022379CE73907F1F020373C473D
:1025D00011F560E280910201909103010E94DE03F7
:1025E000FC01019620812032D9F3CF010E94B71758
:1025F00080E00895809102019091030105969093E7
:10260000030180930201F4CF8091020190910301B4
:102610000597F5CF81E00895CF93DF93EB018631E5
:102620009C4711F50E946A0C9D81992399F08A7A42
:1026300091E009F490E090938B02811109C089E246
:102640000E9499190E941E0D80E0DF91CF9108959C
:1026500085E3F6CF80918B02811104C089E20E944C
:10266000B019F0CF85E3FBCF81E0EFCFCF93DF93BD
:10267000EC01FB018581882309F4D2C09E0130570B
:102680002332310508F0B2C00E94A80D9093AF022A
:102690008093AE02FE01E150F047E232F10520F4F2
:1026A000EA54FD4D0C94EF218091AE02816080933D
:1026B000AE0293C08091AF0288608093AF028DC05C
:1026C0008091AE028260F3CF8091AE028460EFCF42
:1026D0008091AE028860EBCF8091AF028160EDCF38
:1026E0008091AF028260E9CF8091AE028061DFCF3E
:1026F0008091AE028062DBCF8091AE028064D7CF42
:102700000E94DD078091AE028068D1CF8091AE0239
:102710008C60CDCF8091AF028360CFCF8091AE022D
:102720008E7FC5CF8091AF02877FC7CF8091AE02E9
:102730008D7FBDCF8091AE028B7FB9CF8091AE02ED
:10274000877FB5CF8091AF028E7FB7CF8091AF02E8
:102750008D7FB3CF8091AE028F7EA9CF8091AE02E4
:102760008F7DA5CF8091AE028F7BA1CF0E94DD0728
:102770008091AE028F779BCF8091AE02837F97CFFF
:102780008091AF028C7F99CF8091AE0282FB992716
:1027900090F921E0922790FB82F990FB83F987CF93
:1027A0008091AF02982F909591708E7F892B90FB2E
:1027B00081F983CF9091AE02892F8F7B96FF806441
:1027C00076CF0E94DD079091AE02892F97FB87F9A3
:1027D00080586DCF81E00E94310E8091AE029091C1
:1027E000AF020E94AD0D0E94DD0780E0DF91CF9126
:1027F000089580E0F0CF9091AE02892F8F7E94FFF4
:10280000806155CF9091AE02892F8E7F90FF8160BD
:102810004ECF9091AF02892F877F93FF88604DCF75
:1028200081E0E4CF282F35EB2303C001112497FF6B
:1028300004C080589109892F089580589F4FFBCF7D
:102840008091920280FF0DC060910D0170E0660FD3
:10285000771F6038710570F56115710569F1862F74
:10286000089581FF07C060910D0184E0689FB00169
:102870001124EFCF60910D0182FD0AC08091910279
:102880008823A9F020910C0160910D01821710F0AE
:1028900088E0ECCF869FC001112433E0880F991F98
:1028A0003A95E1F7622F70E00E94B921D2CF68E03B
:1028B00070E0D5CF8FE7089581E00895809192026E
:1028C00080FF0CC06091090170E075956795759562
:1028D00067956115710549F1862F089581FF06C03E
:1028E0006091090170E075956795F3CF60910901DA
:1028F00082FD0BC0909190029923A1F06091080194
:1029000080910901961738F0682F70E060387105E2
:1029100000F38FE70895899FC001112470E00E94A1
:10292000B921F4CF61E070E0D7CF81E008959091B4
:10293000950220919602922B20919802922B209141
:102940009702922B31F098E09093910291E090934E
:1029500090028D3C31F40E94201481958093960260
:1029600008958E3C19F40E942014F8CF8F3C31F466
:102970000E9420148195809395020895803D19F45A
:102980000E942014F8CF893D29F40E945E148093A0
:10299000970208958A3D21F40E945E148195F7CF35
:1029A0008B3D31F40E945E148195809398020895C6
:1029B0008C3D19F40E945E14F8CF9FE2980F983076
:1029C00070F4815D990B21E030E001C0220F8A95FF
:1029D000EAF780919402822B8093940208958D3DB2
:1029E00031F48091920281608093920208958E3D2D
:1029F00021F4809192028260F7CF8F3DB9F78091E8
:102A000092028460F1CF409195028D3C59F48091FF
:102A1000960287FF0DC01092960241110BC01092D2
:102A2000910208C08E3C81F48091960218169CF3A6
:102A3000442381F08091970290919802892B09F0AC
:102A40005AC01092900208958F3C49F447FFF0CF8E
:102A500010929502809196028111ECCFE0CF803DDB
:102A600019F41416ACF3E4CF90919702893D29F440
:102A70001916F4F610929702DBCF8A3D19F497FFEE
:102A8000D7CFF8CF909198028B3D29F497FFD0CF04
:102A900010929802CDCF8C3D19F41916CCF3C8CF03
:102AA0009FE2980F983090F4815D990B21E030E01F
:102AB000B90102C0660F771F8A95E2F7CB018095B6
:102AC00090919402892380939402B2CF8D3D31F48A
:102AD000809192028E7F80939202AACF8E3D21F444
:102AE000809192028D7FF7CF8F3D09F0A1CF809129
:102AF00092028B7FF0CF08950E94B41A9C019091AE
:102B0000950280919602982B21F030938F022093AA
:102B10008E029091970280919802982B21F0309329
:102B20008D0220938C0283E992E00E94961808950A
:102B300086E0E3E9F2E0DF011D928A95E9F7109261
:102B4000910210929002109292020895FC018281EB
:102B500081110EC0838181110BC08481811108C055
:102B600091E08581811101C090E0892F81700895E5
:102B700081E0FCCFA6E0B0E0E0ECF5E10C940422AB
:102B800086E0E3E9F2E0DE01119601900D928A956C
:102B9000E1F710929502109296021092970210920D
:102BA00098028B819C81892B89F080918E02909173
:102BB0008F020E94CC1AAC01909191029923C9F125
:102BC00080910E018417150608F440C08D819E8106
:102BD000892B91F080918C0290918D020E94CC1AE9
:102BE000AC0190919002992309F46AC080910A0186
:102BF0008417150608F472C0BE016F5F7F4F83E92A
:102C000092E00E94E119811105C083E992E00E94DF
:102C1000A61581110E947C1586E0FE013196A3E97C
:102C2000B2E001900D928A95E1F72696E3E00C94CC
:102C3000202220910F018AE0289F9001112424175F
:102C4000350720F69F5F9093910202C09F3FD1F716
:102C50001B81112359F00E9420149FEF11160CF4D0
:102C600091E0899F802D1124809395021C8111236E
:102C700059F00E9420149FEF11160CF491E0899FE7
:102C8000802D11248093960280919502882309F467
:102C90009DCF10919602112309F498CF0E9412142F
:102CA000882351F080939502812F0E94121488236B
:102CB00029F0809396028ACF81E0F4CF81E0F9CFAA
:102CC00020910B018AE0289F9001112424173507D9
:102CD00008F092CF9F5F9093900202C09F3FD1F780
:102CE0001D81112359F00E945E149FEF11160CF400
:102CF00091E0899F802D1124809397021E811123DA
:102D000059F00E945E149FEF11160CF491E0899F18
:102D1000802D11248093980280919702882309F4D2
:102D20006BCF10919802112309F466CF0E94121400
:102D3000882351F080939702812F0E9412148823D8
:102D400029F08093980258CF81E0F4CF81E0F9CF49
:102D5000B0E0A0E0EEEAF6E10C94FE21E82FF0E00E
:102D6000E259FD4FB490282F26952695269530E000
:102D7000F901E25FFC4F0491877010E0082E02C059
:102D8000159507950A94E2F701701127F901E250B1
:102D9000FD4FE490F12C082E02C0F594E7940A94BC
:102DA000E2F791E0E922FF24F901E251FD4FC491DD
:102DB000D0E002C0D595C7958A95E2F7C170DD27AE
:102DC000C62ED12C0115110549F5E114F10431F09D
:102DD00086EE0E948104C601009771F5B6018B2D25
:102DE0000E946905C601009779F5E114F104A1F587
:102DF0000115110531F081EE0E940F05C601009703
:102E0000C9F5CD2B31F08CE20E948105C114D104AB
:102E1000C9F5CDB7DEB7E9E00C941A2281EE0E9425
:102E20008104C601009789F2EFE9FFE03197F1F7DD
:102E300000C000000197F6CFEFE9FFE03197F1F70E
:102E400000C000000197C8CFEFE9FFE03197F1F72C
:102E500000C000000197C7CF86EE0E940F05C60193
:102E6000009731F2EFE9FFE03197F1F700C0000081
:102E70000197F6CFEFE9FFE03197F1F700C00000CE
:102E80000197BDCF8FE99FE00197F1F700C00000E7
:102E900091E0C91AD108BACFEF92FF920F931F9316
:102EA000CF93DF93EC01162F0AE08881882309F481
:102EB00059C0813009F052C08981813071F47E019E
:102EC00082E0E80EF11C8A810E948105E701812FD2
:102ED00090E00097D9F52196E8CF823041F47E0149
:102EE000E2E0EE0EF11C8A810E948104EFCF833074
:102EF00041F47E01F2E0EF0EF11C8A810E940F0581
:102F0000E5CF843011F02196E2CF2A81229690E01D
:102F100080E0AE014F5F5F4F2053330B2A30310505
:102F200050F00097A1F2EFE9FFE03197F1F700C010
:102F300000000197F6CF089FB001099F700D112482
:102F4000C901860F971F2981EA01E3CFEFE9FFE06E
:102F50003197F1F700C000000197BBCF612F0E94AD
:102F6000A816B9CFCDB7DEB7E6E00C941D2260E01D
:102F70000E944C1708950F931F93CF93DF93C42F94
:102F8000D22FFC0185818823C9F040939B020E94C7
:102F9000B41A90939A028093990280E28C0F883041
:102FA00040F4C77081E001C0880FCA95EAF70E941B
:102FB0008A05DF91CF911F910F91089510919B0287
:102FC000141336C08091990290919A020E94CC1AF3
:102FD00020910201309103018217930748F5C0E266
:102FE000CD0F1D17B9F080E2810F883040F41770C3
:102FF00081E001C0880F1A95EAF70E949105C83058
:1030000048F481E09D2F977001C0880F9A95EAF7E8
:103010000E948A05802F0E948105C83050F6D77023
:1030200081E001C0880FDA95EAF70E949105C1CFCF
:1030300080E28C0F883008F0BCCFC77081E001C0FF
:10304000880FCA95EAF7F1CF0F93DB0188519C47AF
:1030500087309105A0F5FC01E852FD4D0C94EF215D
:1030600006E221EE41EE6AE17CE7CD010E94BB174A
:1030700080E00F91089507E225EE45EE6BE17CE7D5
:10308000F4CF06E221EE40EE68E17CE7EECF07E206
:1030900025EE44EE69E17CE7E8CF06E221EE42EE60
:1030A0006CE17CE7E2CF07E225EE46EE6DE17CE7DE
:1030B000DCCF08E221E045EE6EE17CE7D6CF159645
:1030C0008C91882319F010929B02D3CF81E0D1CF4D
:1030D0009093A1028093A0020895E091A002F09144
:1030E000A102309729F00190F081E02D0995089513
:1030F00080E008950E946D180895E091A002F0917B
:10310000A102309721F00280F381E02D0995089506
:10311000E091A002F091A102309739F026E0DC01A5
:103120002C930480F581E02D09950895E091A0028B
:10313000F091A102309739F022E0DC012C93068057
:10314000F781E02D09950895A3E0B0E0EAEAF8E1FF
:103150000C94052220919E0230919F022817390776
:10316000A1F090939F0280939E02E091A002F091C3
:10317000A102309751F023E029839B838A83008446
:10318000F185E02DCE01019609952396E2E00C949D
:103190002122A3E0B0E0EFECF8E10C9405222091AD
:1031A0009C0230919D0228173907A1F090939D024F
:1031B00080939C02E091A002F091A102309751F01F
:1031C00024E029839B838A830084F185E02DCE014E
:1031D000019609952396E2E00C94212220910601A4
:1031E000309107012E5F3F4F80911A01882379F0BB
:1031F0008091AE0287FF0BC0209104013091050140
:103200002E5F3F4F9EE180E0915018F4089596E0C4
:10321000FACFF90141919F014423B1F38F5FF4CFBD
:10322000882321F190911A01992311F19091AE0216
:1032300097FF1EC0E82FE695E695E695EE31B0F4CF
:103240002091040130910501E20FF32FF11D22813D
:1032500030E0877041E050E002C0440F551F8A956E
:10326000E2F72423352381E0232B91F480E00895B5
:103270002091060130910701F9013296285F3F4FF6
:103280009191981721F0E217F307D1F7EFCF81E082
:1032900008959C01FC0132969FEF80E04191461712
:1032A00051F09F3F19F4411101C0982F8F5F863074
:1032B000A9F79F3F09F40895290F311D97FD3A950D
:1032C000F90162830895FC01329608962191261334
:1032D00003C0DF0111971C92E817F907B9F70895A9
:1032E000E62FE695E695E695EE3168F4E80FF92FBE
:1032F000F11D677021E030E001C0220F6A95EAF706
:103300008281822B82830895E62FE695E695E695E5
:10331000EE3170F4E80FF92FF11D677021E030E015
:1033200001C0220F6A95EAF7209582812823228323
:103330000895682F80911A01882359F08091AE0278
:1033400087FF07C080910401909105010E947019C8
:10335000089580910601909107010E9449190895EE
:10336000682F80911A01882359F08091AE0287FF5F
:1033700007C080910401909105010E94841908956D
:1033800080910601909107010E9463190895809130
:103390001A01882379F08091AE0287FF0BC0E0917B
:1033A0000401F091050132968EE1DF011D928A95AC
:1033B000E9F70895E0910601F0910701329686E061
:1033C000F4CFDC01FB0111969C9111978181981338
:1033D00022C012968C911297882319F0928189133A
:1033E0001AC013968C911397882319F0938189132F
:1033F00012C015968C911597882319F09581891321
:103400000AC014969C91992321F081E0248129130C
:1034100003C080E001C081E08170089508950E949A
:103420000E1A0895811106C081E08093A2020E94C5
:103430000F1A089582E0F9CF83E08093A2020E94E0
:103440000F1A08950E94121A089581E08093A20233
:103450000E940F1A08950E94251A0895089508954C
:103460000E942F1A0895089508950E942E1A089513
:10347000CF930E94331A0E9424120E94341AC0E093
:103480008C2F0E945911892B31F4CF5FC530C1F7C1
:1034900080E0CF91089581E0FCCF85B7806885BF3B
:1034A00085B7806885BF08951F921FB61F921124AB
:1034B0008F939F93AF93BF938091A302811113C009
:1034C0008091C4029091C502A091C602B091C7023A
:1034D0004196A11DB11D8093C4029093C502A09393
:1034E000C602B093C702BF91AF919F918F911F9079
:1034F0001FBE1F9018958091CC02843031F10E943C
:103500007C031092A30288E190E020E40FB6F894C7
:10351000A895809360000FBE2093600083B7817FE1
:10352000846083BF83B7816083BF7894889583B7B5
:103530008E7F83BF0FB6F894A89580916000886154
:1035400080936000109260000FBE08950E94DD0716
:103550000E948103089582E084BD93E095BD9AEFB7
:1035600097BD80936E0008952FB7F8948091C402A0
:103570009091C502A091C602B091C7022FBF0895D5
:103580002FB7F8946091C4027091C5028091C60271
:103590009091C7022FBF08959C014FB7F894809176
:1035A000C4029091C502A091C602B091C7024FBF5C
:1035B000821B930B089578941F921FB61F921124BB
:1035C0008F939F93AF93BF938091C4029091C50254
:1035D000A091C602B091C7020196A11DB11D8093B2
:1035E000C4029093C502A093C602B093C702BF91D4
:1035F000AF919F918F911F901FBE1F90189581E0F2
:103600008093E00080E28093D8001092C9008FE19F
:103610009EE40197F1F700C0000087E090EBDC0129
:103620008093D5029093D602A093D702B093D8028C
:1036300088E19CE00FB6F894A895809360000FBED7
:1036400090936000FFCF88E19CE00FB6F894A895B6
:10365000809360000FBE90936000FFCF8091AC021A
:1036600008959B01BA019091CC029430E9F48F70D7
:103670008093E9009FEF8091E800915085FD06C09E
:1036800085ED8A95F1F700009111F5CF8091E80062
:1036900085FF0AC050E040E0C9010E94321D8091C0
:1036A000E8008E778093E800089543E050E0BC0185
:1036B00082E00E94311B089546E050E0BC0182E0A8
:1036C0000E94311B089540E250E0BC0182E00E945C
:1036D000311B0895CF93DF93EC0148E050E0BC012B
:1036E00081E00E94311B88E0FE01A4EAB2E0019073
:1036F0000D928A95E1F7DF91CF9108958091CB02E9
:10370000811109C00E94C21E0E941F1F8091E20009
:1037100084608093E20008951092CB0208950E9485
:10372000251A08956091C80281E0611101C080E00E
:103730000E941C1A08959091CC0281E0943009F007
:1037400080E06091C8020E94221A089542E061EC74
:1037500081E00E943E1E42E261EC82E00E943E1E39
:103760009091CC0281E0943009F080E06091C80231
:103770000E94121A08958091CE02833009F461C02C
:1037800030F48130D1F1823009F49EC008958A303E
:1037900009F48AC08B3009F46FC0893009F050C039
:1037A0008091CD02813209F04BC08091D10290917D
:1037B000D202029708F044C08091E800877F80938E
:1037C000E8008091E80082FF37C09091F30080917B
:1037D000F200029731F48091F100813011F08630CF
:1037E00021F48091F1008093AC028091E8008B7706
:1037F0008093E8000E94721E23C08091CD02813A1E
:10380000F9F48091E800877F8093E8008091D102ED
:103810009091D202892B61F468E084EA92E070E032
:103820000E94811D8091E8008B778093E8000895C5
:1038300060E090E080E0F3CF8091CC028111C1CFB5
:1038400008958091CD02813AD9F78091D10290916B
:10385000D202892BA9F78091E800877F8093E80046
:103860008091E80080FFFCCF80911A018093F100E5
:103870008091E8008E77BCCF8091CD02813201F734
:103880008091D1029091D202892BD1F68091E800EB
:10389000877F8093E8000E94721E8091CF02809300
:1038A0001A010E94DD0708958091CD02813241F610
:1038B0008091E800877F8093E8000E94721E8091CB
:1038C000D0028093AD0208958091CD02813A09F033
:1038D000B7CF8091E800877F8093E8008091E8006F
:1038E00080FFFCCF8091AD02C1CF84B7877F84BFBA
:1038F0000FB6F894A895809160008861809360006D
:10390000109260000FBE80E890E00FB6F8948093AC
:103910006100909361000FBE0E942B1A08950E94CF
:10392000C21E0E941F1FE2EEF0E08081846080834F
:1039300078940E949E21089580E191E00E94681889
:1039400008958091CC02853031F48091CC0285308D
:1039500019F00E94A61A08950E947B1A8091CA024B
:10396000882399F30E94381A882379F30E941C1D3A
:103970000E94DD07EACF08959A014091D302509149
:10398000D4020E94C41C0895492F55274330510585
:1039900019F168F44130510509F444C04230510531
:1039A00009F445C090E080E050E040E025C041329D
:1039B000510549F142325105A9F784E490E04FE303
:1039C00054E061157105C1F086EB90E049E853E0E1
:1039D0006130710589F0E6CF99278130910581F03A
:1039E000009729F00297F1F6EEE1F3E002C0E8E378
:1039F000F3E0849190E0AF01F90151834083089591
:103A0000ECE2F3E0F6CF89E090E04EE453E061159C
:103A1000710591F389E090E047E653E0613071056C
:103A200059F3C0CF82E190E047E753E0E5CF8BE365
:103A300090E04CE353E0E0CF80E189BD82E189BDB5
:103A400009B400FEFDCF8091D8008F7D8093D8000F
:103A50008091E00082608093E0008091E00081FD31
:103A6000FCCF0895AF92BF92CF92DF92FF920F9357
:103A70001F93CF93DF936C01EB018A010E94911E8B
:103A8000F82E811123C00115110539F0F80180814C
:103A90009181C81BD90BC80ED91EB12CA12C20971F
:103AA000A9F08091E80085FD22C08091E8008E7722
:103AB0008093E80001151105A1F0F8018081918142
:103AC000A80EB91EB182A08285E0F82E8F2DDF915D
:103AD000CF911F910F91FF90DF90CF90BF90AF904B
:103AE00008950E94911E8823D1F2F82EEFCFF6019F
:103AF00081916F018093F1002197FFEFAF1ABF0A08
:103B0000CECFFC018091D3029091D4028617970703
:103B1000A0F06115710529F49091E8009E779093CB
:103B2000E80090E06115710551F4911108C0809191
:103B3000E80082FF34C080E00895BC01F2CF80919C
:103B4000CC028823C1F18530C1F18091E80083FD6A
:103B500030C08091E80082FDEACF8091E80080FFCC
:103B6000E1CF8091F3002091F200382F61157105AB
:103B700019F02830310558F091E02830310509F06E
:103B800090E02091E8002E772093E800CBCF819140
:103B90008093F100615071092F5F3F4FE7CF809113
:103BA000CC02882341F0853041F08091E80083FF0A
:103BB000BECF81E0089582E0089583E00895FC017E
:103BC0008091D3029091D40286179707A0F06115D7
:103BD000710529F48091E8008E778093E80090E0E9
:103BE0006115710551F4911108C08091E80082FFC0
:103BF00035C080E00895BC01F2CF8091CC028823CB
:103C0000C9F18530C9F18091E80083FD31C0809110
:103C1000E80082FDEACF8091E80080FFE1CF80914B
:103C2000F3002091F200382F6115710519F028304A
:103C3000310558F091E02830310509F090E080918D
:103C4000E8008E778093E800CBCF84918093F100D9
:103C50003196615071092F5F3F4FE6CF8091CC02C2
:103C6000882341F0853041F08091E80083FFBDCF8B
:103C700081E0089582E0089583E00895982F9730B9
:103C800028F08F708093E90081E008959093E90017
:103C9000242F762F50E0981731F07091EC0020918E
:103CA000ED005091F00021FD02C09F5FE8CF309100
:103CB000EB003E7F3093EB003091ED003D7F309381
:103CC000ED003091EB0031603093EB007093EC002D
:103CD0002093ED005093F0002091EE0027FDE5CFFA
:103CE00080E008958091CD0287FF13C08091E800A5
:103CF00082FF06C08091E8008B778093E80004C0C3
:103D00008091CC028111F2CF08958091CC0288235A
:103D1000D9F38091E80080FFF8CF8091E8008E779A
:103D2000ECCF2091E4003091E50095E6A9012091C7
:103D3000EC00822F817020FF06C08091E80080FF98
:103D400006C080E008952091E80022FD1AC080910D
:103D5000CC02882389F0853089F08091EB0085FDC5
:103D60000FC02091E4003091E50042175307F9F2AB
:103D70009150E1F684E0089582E0089583E008958B
:103D800081E008950E94311F0E94391FE0EEF0E0AB
:103D9000808181608083E8EDF0E080818F7780838F
:103DA00019BCA7EDB0E08C918E7F8C9380818F7EC3
:103DB00080831092CB0208950F931F93CF93DF93CC
:103DC0000E94311F0E94391FC8EDD0E088818F7793
:103DD000888388818068888388818F7D888319BCE7
:103DE0001092CC021092C8021092CA021092C9021C
:103DF00000EE10E0F80180818B7F808388818160F4
:103E0000888342E060E080E00E943E1EE1EEF0E048
:103E100080818E7F8083E2EEF0E08081816080830C
:103E2000808188608083F80180818E7F8083888193
:103E300080618883DF91CF911F910F910895E8ED04
:103E4000F0E080818F7E8083E7EDF0E0808181600B
:103E5000808384E082BF81E08093CB020E94DC1EDD
:103E60000895E8EDF0E080818E7F80831092E2007B
:103E700008951092DA001092E10008951F920F92B7
:103E80000FB60F9211242F933F934F935F936F932D
:103E90007F938F939F93AF93BF93EF93FF93809103
:103EA000E10082FF0BC08091E20082FF07C0809199
:103EB000E1008B7F8093E1000E949D218091DA00D8
:103EC00080FF19C08091D80080FF15C08091DA0072
:103ED0008E7F8093DA008091D90080FF96C080E1C8
:103EE00089BD82E189BD09B400FEFDCF81E08093E8
:103EF000CC020E947E1B8091E10080FF19C080915E
:103F0000E20080FF15C08091E2008E7F8093E20086
:103F10008091E20080618093E2008091D80080620D
:103F20008093D80019BC85E08093CC020E94921B3C
:103F30008091E10084FF2BC08091E20084FF27C0C4
:103F400080E189BD82E189BD89B5982F917080FF9C
:103F5000FBCF8091D8008F7D8093D8008091E100C5
:103F60008F7E8093E1008091E2008F7E8093E2005B
:103F70008091E20081608093E2008091C8028823F2
:103F800009F449C084E08093CC020E949B1B80917D
:103F9000E10083FF29C08091E20083FF25C080916A
:103FA000E100877F8093E10082E08093CC02109251
:103FB000C8028091E1008E7F8093E1008091E20051
:103FC0008E7F8093E2008091E20080618093E20026
:103FD00042E060E080E00E943E1E8091F000886038
:103FE0008093F0000E948F1BFF91EF91BF91AF91E2
:103FF0009F918F917F916F915F914F913F912F9101
:104000000F900FBE0F901F90189519BC1092CC0204
:104010000E948C1B70CF8091E30087FD93E090930A
:10402000CC02B3CF1F920F920FB60F9211242F9391
:104030003F934F935F936F937F938F939F93AF9330
:10404000BF93CF93DF93EF93FF93D091E900DF709D
:104050008091EC00C82FC17080FDC0E81092E9008B
:104060008091F000877F8093F00078940E94562022
:104070001092E9008091F00088608093F000CD2BD1
:10408000CF70C093E900FF91EF91DF91CF91BF9185
:10409000AF919F918F917F916F915F914F913F91E0
:1040A0002F910F900FBE0F901F901895AAE2B0E0CD
:1040B000ECE5F0E20C9404228DEC92E02091F1000A
:1040C000FC012193CF01F2E0853D9F07B9F70E94E3
:1040D000BB1B8091E80083FF1EC18091CD029091AF
:1040E000CE029A3008F017C1E92FF0E0E152FD4D01
:1040F0000C94EF21803899F0823809F00CC180913E
:10410000D1028F70873008F006C18093E90080915A
:10411000EB0085FB882780F91092E90006C08091AA
:10412000C9029091CA02911182609091E800977F34
:104130009093E8008093F1001092F1008091E800E4
:104140008E77E5C0882309F4D3C0823009F0E3C03C
:104150008091CF028111D6C08091D1028F702FEF54
:10416000280F263008F0D7C08093E9002091EB009B
:1041700020FFC8C0933031F48091EB0080628093BF
:10418000EB00C0C09091EB0090619093EB0021E0B8
:1041900030E001C0220F8A95EAF72093EA001092DE
:1041A000EA008091EB008860EACF8111B4C01091E1
:1041B000CF021F778091E3008078812B8093E3000A
:1041C0008091E800877F8093E8000E94721E8091B2
:1041D000E80080FFFCCF8091E30080688093E300DB
:1041E00082E0111183E08093CC0295C08058823028
:1041F00008F091C08091CF029091D0028C3D23E0D5
:104200009207A1F583E08A838AE289834FB7F89405
:10421000DE01139620E03EE051E2E32FF0E0509300
:104220005700E49120FF03C0E295EF703F5FEF700D
:104230008E2F90E0EA30C0F0C7968D939D932F5F4C
:10424000243159F74FBF8091E800877F8093E800C1
:104250006AE270E0CE0101960E94811D8091E80023
:104260008B778093E80057C0C096E7CF6091D1026A
:104270007091D202AE014F5F5F4F0E94BC1CBC0127
:10428000892B09F448C09091E800977F9093E8004B
:1042900089819A810E94DF1DE1CF8038E1F580910C
:1042A000E800877F8093E8008091C8028093F10046
:1042B00045CF811130C09091CF02923060F580914E
:1042C000E800877F8093E8009093C8020E94721EE6
:1042D0008091C802882311F084E005C08091E3003A
:1042E00087FDFACF81E08093CC020E94A61B13C009
:1042F0008091CF02813079F481E0933009F080E041
:104300008093CA021092E9008091E800877F809331
:10431000E8000E94721E8091E80083FF0AC080912D
:10432000E800877F8093E8008091EB0080628093B3
:10433000EB00AA96E3E00C9420220895CF9380919D
:10434000CC028823A1F0C091E900CF709091EC00DD
:10435000892F817090FD80E8C82B1092E900809130
:10436000E80083FD0E945620CF70C093E900CF91F2
:10437000089597FB072E16F4009407D077FD09D017
:104380000E942C2207FC05D03EF4909581959F4F0A
:104390000895709561957F4F0895A1E21A2EAA1B8A
:1043A000BB1BFD010DC0AA1FBB1FEE1FFF1FA217E5
:1043B000B307E407F50720F0A21BB30BE40BF50BE2
:1043C000661F771F881F991F1A9469F7609570956B
:1043D000809590959B01AC01BD01CF010895EE0F32
:1043E000FF1F0590F491E02D09942F923F924F9278
:1043F0005F926F927F928F929F92AF92BF92CF9275
:10440000DF92EF92FF920F931F93CF93DF93CDB77D
:10441000DEB7CA1BDB0B0FB6F894DEBF0FBECDBFF5
:1044200009942A88398848885F846E847D848C84C6
:104430009B84AA84B984C884DF80EE80FD800C81CF
:104440001B81AA81B981CE0FD11D0FB6F894DEBFB2
:104450000FBECDBFED010895AA1BBB1B51E107C0E4
:10446000AA1FBB1FA617B70710F0A61BB70B881F04
:10447000991F5A95A9F780959095BC01CD01089593
:10448000FB01DC0104C08D910190801921F44150A1
:104490005040C8F7881B990B0895FB01DC0102C04E
:1044A00001900D9241505040D8F70895F999FECFF0
:1044B00092BD81BDF89A992780B50895A8E1B0E032
:1044C00042E050E00C949A22DC01A40FB51F415049
:1044D000504048F0CB01840F951F2E910E94752209
:1044E00041505040D0F70895262FF999FECF92BD44
:1044F00081BDF89A019700B4021639F01FBA20BDA9
:104500000FB6F894FA9AF99A0FBE08950396272FDA
:104510000E9475220E947422252F0E947522242F4A
:104520000C9475220196272F0E9475220C947422F8
:10453000DC01CB01FC01F999FECF06C0F2BDE1BD63
:10454000F89A319600B40D9241505040B8F7089552
:10455000F894FFCFD905D905290629068E06AA06A3
:1045600008060806AF0620072F072F078E13021430
:104570009613601364139A1368139E13AA1374138B
:10458000FB137813AE137C13B213DA138013B61334
:10459000E1138613BC13C4136C13A2137013A61378
:1045A0008A13C013D013EA13F9135A139213091480
:1045B0004118471830183B184D18531859187A20CD
:1045C000A2208B21A2208B21D520F6208B214D21EA
:0245D00059216F
:1045D200FF007D0049026902280850011E0A1401E9
:1045E2002E1B6A1B631B5C1B551B01E200E900EAE0
:1045F20000B500B600B700CD008301CC008A01925D
:104602000194012102230224022502260227022A02
:1046120002B300B4006F0070009F01CB019F02A0A3
:1046220002818283E200E900EA00B500B600B70029
:10463200CD008301CC008A01920194012102230260
:1046420024022502260227022A02B300B4006F00C8
:1046520070009F01CB019F02A002818283F0F1C60C
:10466200676636943130373534979633909192930A
:024672009500B1
:00000001FF
